:100000000C9436000C945E000C945E000C945E0020
:100010000C945E000C945E000C945E000C945E00E8
:100020000C945E000C945E000C945E000C945E00D8
:100030000C945E000C945E000C945E000C945E00C8
:100040000C941D030C945E000C942B010C945E0028
:100050000C945E000C945E000C945E000C945E00A8
:100060000C945E000C945E006100E20111241FBE3E
:10007000CFEFD4E0DEBFCDBF11E0A0E0B1E0E6E617
:10008000F8E002C005900D92A038B107D9F711E051
:10009000A0E8B1E001C01D92A93BB107E1F710E073
:1000A000CCE6D0E004C02297FE010E942D04C836A1
:1000B000D107C9F70E941A010C9431040C94000076
:1000C000089586E691E090938101809380018AE013
:1000D00090E0909383018093820108951F938AE9B1
:1000E00091E040E855E260E070E00E9466018AE934
:1000F00091E060E071E00E944B0210E015C0220F19
:10010000331FE0918001F0918101E20FF31F6081C4
:1001100071818AE991E00E9415038AE991E06BE11F
:1001200071E00E941C021F5F212F30E0809182014C
:10013000909183012817390714F38AE991E06EE161
:1001400071E00E944B028AE991E066E371E00E944F
:100150001C02E0918001F0918101608171814091E8
:1001600082015091830121E030E008C080819181BB
:10017000861797070CF4BC012F5F3F4F3296241768
:100180003507A4F38AE991E00E9415038AE991E01A
:100190000E9434028AE991E066E471E00E941C0248
:1001A000E0918001F0918101608171814091820133
:1001B0005091830121E030E008C08081918168176F
:1001C00079070CF4BC012F5F3F4F32962417350797
:1001D000A4F38AE991E00E9415038AE991E00E9464
:1001E00034028AE991E066E571E00E941C026091A8
:1001F000820170918301E0918001F091810140E0E2
:1002000050E020E030E006C081919191280F391F25
:100210004F5F5F4F46175707BCF3C9010E94C703E2
:100220008AE991E00E9415038AE991E00E94340274
:100230001F9108950E948D038EE690E0892B11F0A6
:100240000E946E0080E690E0892B19F00E94600009
:10025000FDCF0000FECF1F920F920FB60F92112418
:100260002F933F934F935F936F937F938F939F93BE
:10027000AF93BF93EF93FF934091C6008091980195
:10028000E82FF0E06091AC01CF01019670E00E9490
:10029000C7039C018091990190E02817390729F044
:1002A000EC57FE4F408320939801FF91EF91BF914F
:1002B000AF919F918F917F916F915F914F913F91FE
:1002C0002F910F900FBE0F901F901895AF92BF9275
:1002D000CF92DF92EF92FF920F931F93CF93DF9312
:1002E0006C017A018B01DC011496AD90BC901597DE
:1002F000CB01BA0122E030E040E050E00E94FC0374
:10030000205C3D4B404F5F4FCA01B901A8019701E6
:100310000E94FC03C901DA010197A109B109292F43
:100320003A2F4B2F552747FD5A950196A11DB11D18
:10033000E5012883E601EE81FF8181508083EA8513
:10034000FB85208141E050E0CA010E8402C0880F85
:10035000991F0A94E2F7282B2083EA85FB852081E8
:10036000CA010F8402C0880F991F0A94E2F7282B54
:100370002083EA85FB858081088802C0440F551FD1
:100380000A94E2F7842B8083DF91CF911F910F9124
:10039000FF90EF90DF90CF90BF90AF900895FC0159
:1003A000A085B18521898C9190E0022E02C095959F
:1003B00087950A94E2F780FFF6CF0484F585E02D57
:1003C000608308958EE791E090939B0180939A015A
:1003D00084E18093AC0184E891E090939D01809347
:1003E0009C0185EC90E090939F0180939E0184ECAA
:1003F00090E09093A1018093A00180EC90E0909315
:10040000A3018093A20181EC90E09093A5018093D9
:10041000A40186EC90E09093A7018093A60184E06C
:100420008093A80183E08093A90187E08093AA01CB
:1004300085E08093AB0108950F931F93CF93DF93D3
:100440008C01EB0109C02196D801ED91FC9101903E
:10045000F081E02DC801099568816623A1F7DF913D
:10046000CF911F910F9108950F931F938C01DC0181
:10047000ED91FC910190F081E02D6DE00995D8019E
:10048000ED91FC910190F081E02DC8016AE00995A1
:100490001F910F9108950F931F938C010E941C02CE
:1004A000C8010E9434021F910F9108952F923F922C
:1004B0004F925F926F927F928F929F92AF92BF9274
:1004C000CF92DF92EF92FF920F931F93DF93CF9320
:1004D000CDB7DEB7A0970FB6F894DEBF0FBECDBF85
:1004E0001C016A017B01411551056105710549F443
:1004F000DC01ED91FC910190F081E02D60E3099524
:1005000054C0882499245401422E5524662477240B
:1005100001E010E00C0F1D1F080D191DC701B601E9
:10052000A30192010E94DA03F80160830894811C00
:10053000911CA11CB11CC701B601A30192010E942C
:10054000DA03C901DA016C017D01C114D104E104AF
:10055000F104F1F681E0E82EF12CEC0EFD1EE80C22
:10056000F91C3E010894611C711CD501C40101975E
:10057000A109B1096C01C818D90814C0F601EE0D23
:10058000FF1D60816A3010F4605D01C0695CD101BB
:10059000ED91FC910190F081E02DC1010995089445
:1005A000E108F1086E147F0449F7A0960FB6F8949D
:1005B000DEBF0FBECDBFCF91DF911F910F91FF9096
:1005C000EF90DF90CF90BF90AF909F908F907F90F3
:1005D0006F905F904F903F902F900895EF92FF9211
:1005E0000F931F93CF93DF93EC017A018B0177FF79
:1005F0000FC0E881F9810190F081E02D6DE209954D
:1006000010950095F094E094E11CF11C011D111D62
:10061000CE01B801A7012AE00E945602DF91CF91D6
:100620001F910F91FF90EF900895AB01662757FD42
:100630006095762F0E94EE0208951F920F920FB6DA
:100640000F9211242F938F939F93AF93BF93809119
:10065000AD019091AE01A091AF01B091B0010196B2
:10066000A11DB11D8093AD019093AE01A093AF0188
:10067000B093B0018091B1019091B201A091B3010A
:10068000B091B4018050904CAF4FBF4F8093B101F7
:100690009093B201A093B301B093B40127C08091AD
:1006A000B1019091B201A091B301B091B401805811
:1006B0009E43A040B0408093B1019093B201A093BB
:1006C000B301B093B4018091B5019091B601A091AE
:1006D000B701B091B8010196A11DB11D8093B5017C
:1006E0009093B601A093B701B093B8018091B10186
:1006F0009091B201A091B301B091B40181589E4391
:10070000A040B04060F6BF91AF919F918F912F9123
:100710000F900FBE0F901F901895789484B582604B
:1007200084BD84B5816084BD85B5826085BD85B595
:10073000816085BDEEE6F0E0808181608083E1E844
:10074000F0E0808182608083808181608083E0E846
:10075000F0E0808181608083E1EBF0E08081846063
:100760008083E0EBF0E0808181608083EAE7F0E065
:1007700080818460808380818260808380818160C9
:1007800080838081806880831092C100089597FBE8
:10079000092E07260AD077FD04D049D006D00020C4
:1007A0001AF4709561957F4F0895F6F790958195AD
:1007B0009F4F0895A1E21A2EAA1BBB1BFD010DC07D
:1007C000AA1FBB1FEE1FFF1FA217B307E407F50701
:1007D00020F0A21BB30BE40BF50B661F771F881FDD
:1007E000991F1A9469F760957095809590959B0173
:1007F000AC01BD01CF01089597FB092E05260ED04F
:1008000057FD04D0D7DF0AD0001C38F4509540952E
:10081000309521953F4F4F4F5F4F0895F6F79095D4
:100820008095709561957F4F8F4F9F4F0895AA1BBC
:10083000BB1B51E107C0AA1FBB1FA617B70710F0CB
:10084000A61BB70B881F991F5A95A9F780959095FD
:10085000BC01CD010895EE0FFF1F0590F491E02D2E
:060860000994F894FFCF9B
:1008660054686520636F6E74656E7473206F6620BE
:100876007468652061727261793A002C20000A530F
:1008860070656369616C2066756E6374696F6E610D
:100896006C6974793A00094D696E696D756D2076DB
:1008A600616C75653A00094D6178696D756D2076E4
:1008B600616C75653A0009417665726167652076F7
:1008C600616C75653A000100020003000400050032
:1008D60006000700080009000A0000000000CF011A
:00000001FF
